S00D00004C414232432E73726563D3
S11300000C9434000C9446000C9446000C94460066
S11300100C9446000C9446000C9446000C94460044
S11300200C9446000C9446000C9446000C94460034
S11300300C9446000C9446000C94FA010C9446006F
S11300400C9446000C9446000C9446000C94460014
S11300500C9446000C9446000C9446000C94460004
S11300600C9446000C94460011241FBECFEFD8E038
S1130070DEBFCDBF21E0A0E0B1E001C01D92A330FE
S1130080B207E1F70E94AC000C9460020C940000EB
S1130090ACE7B0E01C92EAE7F0E010828C91806457
S11300A08C938081806880838081876080830895B9
S11300B0ECE7F0E09081907F908390818F70982B93
S11300C09083EAE7F0E080818064808380917A0005
S11300D086FDFCCF80917800909179000895CF92AD
S11300E0DF92EF92FF92CF93C82F0E9458006C01C9
S11300F0E12CF12C8C2F0E945800C80ED91EE11C53
S1130100F11C8C2F0E945800C80ED91EE11CF11C52
S11301108C2F0E945800A7019601280F391F411DFA
S1130120511DDA01C901B695A79597958795B6959E
S1130130A79597958795CF91FF90EF90DF90CF90FB
S113014008956817790718F4861B970B08959B0187
S1130150281B390BC90108950E9448000E942801F8
S11301600E946E010E94B301789480E00E946F00A7
S1130170A82EB92E81E00E946F00C82ED92E82E0ED
S11301800E946F00882E992E8A2D9B2D0E945D015E
S11301908C2D9D2D0E94A201882D992D0E94E00195
S11301A0082D192DC0E080E00E946F00582E692EA2
S11301B081E00E946F00782ED92F82E00E946F00A8
S11301C07C016A2D7B2D852D962D0E94A1000B9715
S11301D030F0852D962D0E945D01A52CB62C6C2D3A
S11301E07D2D872D9D2F0E94A1000B9730F0872D28
S11301F09D2F0E94A201C72CDD2ECF5FC43008F1D1
S1130200C801880F991F880F991F880F991F801B99
S1130210910B8E0D9F1D8C011695079516950795CC
S113022016950795682D792DC8010E94A10009979C
S113023038F0C8010E94E001802E912EC0E001C078
S1130240C0E08FE39CE90197F1F700C00000ABCF59
S113025084B1826084B9A0E8B0E01C92E1E8F0E0E7
S113026010828C9180688C938C9182608C938081B5
S1130270886180838081826080838FE39CE990938E
S113028087008093860088EB9BE09093890080939D
S113029088000895883E23E0920710F488EE93E0E6
S11302A0813D27E0920710F080ED97E0880F991FB9
S11302B0909389008093880008959C01A8EEB3E090
S11302C00E9451022FEF33E040E050E00E942F02E1
S11302D0C90188519C4F0E944A01089584B18860E5
S11302E084B9E0EBF0E01082A1EBB0E01C928081D5
S11302F0806880838081836080838C9187608C9305
S113030087E18093B3000895883E23E0920710F4B8
S113031088EE93E0813D27E0920710F080ED97E0AE
S11303200024880F991F001C880F991F001C892F17
S1130330902D803108F480E1803208F08FE18093C1
S1130340B30008959C01A8EEB3E00E9451022FEF80
S113035033E040E050E00E942F02C90188519C4FD5
S11303600E94840108958AB188608AB98BB1877F1D
S11303708BB914BC15BC16BC84B5826084BD8FE4F3
S113038087BD85B5826085BDEEE6F0E08081826040
S1130390808310920101109200010895853608F0BF
S11303A084E68093010190E1899F90011124ABE7D9
S11303B0B4E10E94510296958795809300010895B7
S11303C08A31910588F0833E23E0920778F49C01FA
S11303D0A4E6B0E00E9451022FEF33E040E050E089
S11303E00E942F02822F03C080E001C084E60E9495
S11303F0CE0108951F920F920FB60F9211248F937E
S11304009F93809102018F5F80930201809102018A
S1130410803428F0109202018BB188608BB98091EE
S11304200001811104C08BB1877F8BB911C0809109
S11304300001803420F08BB188608BB909C09091A1
S1130440020180910001981718F08BB1877F8BB956
S11304509F918F910F900FBE0F901F901895A1E25E
S11304601A2EAA1BBB1BFD010DC0AA1FBB1FEE1F2A
S1130470FF1FA217B307E407F50720F0A21BB30B75
S1130480E40BF50B661F771F881F991F1A9469F7F1
S113049060957095809590959B01AC01BD01CF014D
S11304A00895A29FB001B39FC001A39F700D811D49
S11304B01124911DB29F700D811D1124911D089569
S10704C0F894FFCFDA
S9030000FC
